{
  "contractName": "Sponsor",
  "abi": [
    {
      "constant": true,
      "inputs": [],
      "name": "enabled",
      "outputs": [
        {
          "name": "",
          "type": "bool"
        }
      ],
      "payable": false,
      "stateMutability": "view",
      "type": "function"
    },
    {
      "constant": false,
      "inputs": [],
      "name": "enableContract",
      "outputs": [],
      "payable": false,
      "stateMutability": "nonpayable",
      "type": "function"
    },
    {
      "constant": true,
      "inputs": [],
      "name": "maxNameLength",
      "outputs": [
        {
          "name": "",
          "type": "uint256"
        }
      ],
      "payable": false,
      "stateMutability": "view",
      "type": "function"
    },
    {
      "constant": true,
      "inputs": [],
      "name": "maxUrlLength",
      "outputs": [
        {
          "name": "",
          "type": "uint256"
        }
      ],
      "payable": false,
      "stateMutability": "view",
      "type": "function"
    },
    {
      "constant": true,
      "inputs": [],
      "name": "maxInfoLength",
      "outputs": [
        {
          "name": "",
          "type": "uint256"
        }
      ],
      "payable": false,
      "stateMutability": "view",
      "type": "function"
    },
    {
      "constant": true,
      "inputs": [],
      "name": "maxSponsorLimit",
      "outputs": [
        {
          "name": "",
          "type": "uint256"
        }
      ],
      "payable": false,
      "stateMutability": "view",
      "type": "function"
    },
    {
      "constant": false,
      "inputs": [],
      "name": "disableContract",
      "outputs": [],
      "payable": false,
      "stateMutability": "nonpayable",
      "type": "function"
    },
    {
      "constant": true,
      "inputs": [],
      "name": "owner",
      "outputs": [
        {
          "name": "",
          "type": "address"
        }
      ],
      "payable": false,
      "stateMutability": "view",
      "type": "function"
    },
    {
      "constant": false,
      "inputs": [
        {
          "name": "newOwner",
          "type": "address"
        }
      ],
      "name": "transferOwnership",
      "outputs": [],
      "payable": false,
      "stateMutability": "nonpayable",
      "type": "function"
    },
    {
      "anonymous": false,
      "inputs": [
        {
          "indexed": false,
          "name": "sponsors",
          "type": "address"
        },
        {
          "indexed": false,
          "name": "patron",
          "type": "address"
        },
        {
          "indexed": false,
          "name": "sponsorAmount",
          "type": "uint256"
        },
        {
          "indexed": false,
          "name": "sponsor_at",
          "type": "uint256"
        }
      ],
      "name": "Sponsor",
      "type": "event"
    },
    {
      "anonymous": false,
      "inputs": [
        {
          "indexed": false,
          "name": "dappName",
          "type": "string"
        },
        {
          "indexed": false,
          "name": "contractAddr",
          "type": "address"
        },
        {
          "indexed": false,
          "name": "indexUrl",
          "type": "string"
        },
        {
          "indexed": false,
          "name": "receiverAddr",
          "type": "address"
        },
        {
          "indexed": false,
          "name": "extendedInfo",
          "type": "string"
        },
        {
          "indexed": false,
          "name": "created_at",
          "type": "uint256"
        }
      ],
      "name": "RegisterDapp",
      "type": "event"
    },
    {
      "anonymous": false,
      "inputs": [
        {
          "indexed": false,
          "name": "id",
          "type": "uint256"
        },
        {
          "indexed": false,
          "name": "registrant",
          "type": "address"
        },
        {
          "indexed": false,
          "name": "dappName",
          "type": "string"
        }
      ],
      "name": "DeregisterDapp",
      "type": "event"
    },
    {
      "anonymous": false,
      "inputs": [
        {
          "indexed": false,
          "name": "id",
          "type": "uint256"
        },
        {
          "indexed": false,
          "name": "new_name",
          "type": "string"
        },
        {
          "indexed": false,
          "name": "new_contract_addr",
          "type": "address"
        },
        {
          "indexed": false,
          "name": "new_index_url",
          "type": "string"
        },
        {
          "indexed": false,
          "name": "new_receiver_addr",
          "type": "address"
        },
        {
          "indexed": false,
          "name": "new_extended_info",
          "type": "string"
        },
        {
          "indexed": false,
          "name": "modified_at",
          "type": "uint256"
        }
      ],
      "name": "ModifyDapp",
      "type": "event"
    },
    {
      "anonymous": false,
      "inputs": [
        {
          "indexed": false,
          "name": "new_max_sponsor_Limit",
          "type": "uint256"
        },
        {
          "indexed": false,
          "name": "changed_at",
          "type": "uint256"
        }
      ],
      "name": "SetMaxSponsorLimit",
      "type": "event"
    },
    {
      "anonymous": false,
      "inputs": [
        {
          "indexed": false,
          "name": "id",
          "type": "uint256"
        },
        {
          "indexed": false,
          "name": "dappName",
          "type": "string"
        },
        {
          "indexed": false,
          "name": "receiver",
          "type": "address"
        },
        {
          "indexed": false,
          "name": "takedown_at",
          "type": "uint256"
        }
      ],
      "name": "TakedownDapp",
      "type": "event"
    },
    {
      "anonymous": false,
      "inputs": [
        {
          "indexed": true,
          "name": "enabled",
          "type": "bool"
        }
      ],
      "name": "EnableStatusChanged",
      "type": "event"
    },
    {
      "anonymous": false,
      "inputs": [
        {
          "indexed": true,
          "name": "previousOwner",
          "type": "address"
        },
        {
          "indexed": true,
          "name": "newOwner",
          "type": "address"
        }
      ],
      "name": "OwnershipTransferred",
      "type": "event"
    },
    {
      "constant": false,
      "inputs": [
        {
          "name": "limit",
          "type": "uint256"
        }
      ],
      "name": "setMaxSponsorLimit",
      "outputs": [],
      "payable": false,
      "stateMutability": "nonpayable",
      "type": "function"
    },
    {
      "constant": false,
      "inputs": [
        {
          "name": "len",
          "type": "uint256"
        }
      ],
      "name": "setMaxNameLength",
      "outputs": [],
      "payable": false,
      "stateMutability": "nonpayable",
      "type": "function"
    },
    {
      "constant": false,
      "inputs": [
        {
          "name": "len",
          "type": "uint256"
        }
      ],
      "name": "setMaxUrlLength",
      "outputs": [],
      "payable": false,
      "stateMutability": "nonpayable",
      "type": "function"
    },
    {
      "constant": false,
      "inputs": [
        {
          "name": "len",
          "type": "uint256"
        }
      ],
      "name": "setMaxInfoLength",
      "outputs": [],
      "payable": false,
      "stateMutability": "nonpayable",
      "type": "function"
    },
    {
      "constant": false,
      "inputs": [
        {
          "name": "name",
          "type": "string"
        },
        {
          "name": "contractAddr",
          "type": "address"
        },
        {
          "name": "url",
          "type": "string"
        },
        {
          "name": "receiverAddr",
          "type": "address"
        },
        {
          "name": "extendedInfo",
          "type": "string"
        }
      ],
      "name": "registerDapp",
      "outputs": [],
      "payable": false,
      "stateMutability": "nonpayable",
      "type": "function"
    },
    {
      "constant": false,
      "inputs": [
        {
          "name": "id",
          "type": "uint256"
        }
      ],
      "name": "deregisterDapp",
      "outputs": [],
      "payable": false,
      "stateMutability": "nonpayable",
      "type": "function"
    },
    {
      "constant": false,
      "inputs": [
        {
          "name": "id",
          "type": "uint256"
        },
        {
          "name": "name",
          "type": "string"
        },
        {
          "name": "contractAddr",
          "type": "address"
        },
        {
          "name": "url",
          "type": "string"
        },
        {
          "name": "receiverAddr",
          "type": "address"
        },
        {
          "name": "extendedInfo",
          "type": "string"
        }
      ],
      "name": "modifyDapp",
      "outputs": [],
      "payable": false,
      "stateMutability": "nonpayable",
      "type": "function"
    },
    {
      "constant": false,
      "inputs": [
        {
          "name": "id",
          "type": "uint256"
        }
      ],
      "name": "takedownDapp",
      "outputs": [],
      "payable": false,
      "stateMutability": "nonpayable",
      "type": "function"
    },
    {
      "constant": false,
      "inputs": [
        {
          "name": "id",
          "type": "uint256"
        },
        {
          "name": "amount",
          "type": "uint256"
        }
      ],
      "name": "sponsor",
      "outputs": [],
      "payable": true,
      "stateMutability": "payable",
      "type": "function"
    }
  ],
  "bytecode": "0x60806040526001600060146101000a81548160ff02191690831515021790555069021e19e0c9bab24000006001556064600255606460035560c86004556000600655336000806101000a81548173ffffffffffffffffffffffffffffffffffffffff021916908373ffffffffffffffffffffffffffffffffffffffff16021790555061354b806100906000396000f3006080604052600436106100fc576000357c0100000000000000000000000000000000000000000000000000000000900463ffffffff168063077fdd13146101015780631db5ff781461012e578063238dafe01461015b57806329f05b881461018a578063367edd32146101b75780633b992f2b146101ce57806358fe1d96146101f95780635ca7d17c146102245780635d066d651461024f578063663dc7651461027c5780636e09c8fd146102a7578063883911dc1461035c578063894ba833146104075780638da5cb5b1461041e578063947fdb8b14610475578063b7bd463f1461049f578063eefa9fac146104cc578063f2fde38b146104f9575b600080fd5b34801561010d57600080fd5b5061012c6004803603810190808035906020019092919050505061053c565b005b34801561013a57600080fd5b506101596004803603810190808035906020019092919050505061076f565b005b34801561016757600080fd5b506101706109a2565b604051808215151515815260200191505060405180910390f35b34801561019657600080fd5b506101b5600480360381019080803590602001909291905050506109b5565b005b3480156101c357600080fd5b506101cc610be8565b005b3480156101da57600080fd5b506101e3610d2d565b6040518082815260200191505060405180910390f35b34801561020557600080fd5b5061020e610d33565b6040518082815260200191505060405180910390f35b34801561023057600080fd5b50610239610d39565b6040518082815260200191505060405180910390f35b34801561025b57600080fd5b5061027a60048036038101908080359060200190929190505050610d3f565b005b34801561028857600080fd5b50610291610fc0565b6040518082815260200191505060405180910390f35b3480156102b357600080fd5b5061035a60048036038101908080359060200190929190803590602001908201803590602001919091929391929390803573ffffffffffffffffffffffffffffffffffffffff169060200190929190803590602001908201803590602001919091929391929390803573ffffffffffffffffffffffffffffffffffffffff169060200190929190803590602001908201803590602001919091929391929390505050610fc6565b005b34801561036857600080fd5b50610405600480360381019080803590602001908201803590602001919091929391929390803573ffffffffffffffffffffffffffffffffffffffff169060200190929190803590602001908201803590602001919091929391929390803573ffffffffffffffffffffffffffffffffffffffff16906020019092919080359060200190820180359060200191909192939192939050505061187d565b005b34801561041357600080fd5b5061041c611fa4565b005b34801561042a57600080fd5b506104336120e8565b604051808273ffffffffffffffffffffffffffffffffffffffff1673ffffffffffffffffffffffffffffffffffffffff16815260200191505060405180910390f35b61049d600480360381019080803590602001909291908035906020019092919050505061210d565b005b3480156104ab57600080fd5b506104ca600480360381019080803590602001909291905050506125a4565b005b3480156104d857600080fd5b506104f760048036038101908080359060200190929190505050612b13565b005b34801561050557600080fd5b5061053a600480360381019080803573ffffffffffffffffffffffffffffffffffffffff169060200190929190505050613050565b005b6000809054906101000a900473ffffffffffffffffffffffffffffffffffffffff1673ffffffffffffffffffffffffffffffffffffffff163373ffffffffffffffffffffffffffffffffffffffff16141515610626576040517f08c379a00000000000000000000000000000000000000000000000000000000081526004018080602001828103825260258152602001807f596f75277265206e6f7420746865206f776e6572206f66207468697320636f6e81526020017f747261637400000000000000000000000000000000000000000000000000000081525060400191505060405180910390fd5b600181101515156106c5576040517f08c379a00000000000000000000000000000000000000000000000000000000081526004018080602001828103825260298152602001807f546865204d6178206c656e677468206f662075726c2063616e206e6f74206c6581526020017f7373207468616e2031000000000000000000000000000000000000000000000081525060400191505060405180910390fd5b6127108111151515610765576040517f08c379a00000000000000000000000000000000000000000000000000000000081526004018080602001828103825260308152602001807f546865204d6178206c656e677468206f662075726c2063616e206e6f7420677281526020017f6561746572207468616e2031303030300000000000000000000000000000000081525060400191505060405180910390fd5b8060038190555050565b6000809054906101000a900473ffffffffffffffffffffffffffffffffffffffff1673ffffffffffffffffffffffffffffffffffffffff163373ffffffffffffffffffffffffffffffffffffffff16141515610859576040517f08c379a00000000000000000000000000000000000000000000000000000000081526004018080602001828103825260258152602001807f596f75277265206e6f7420746865206f776e6572206f66207468697320636f6e81526020017f747261637400000000000000000000000000000000000000000000000000000081525060400191505060405180910390fd5b600181101515156108f8576040517f08c379a000000000000000000000000000000000000000000000000000000000815260040180806020018281038252602a8152602001807f546865204d6178206c656e677468206f66206e616d652063616e206e6f74206c81526020017f657373207468616e20310000000000000000000000000000000000000000000081525060400191505060405180910390fd5b6127108111151515610998576040517f08c379a00000000000000000000000000000000000000000000000000000000081526004018080602001828103825260318152602001807f546865204d6178206c656e677468206f66206e616d652063616e206e6f74206781526020017f726561746572207468616e20313030303000000000000000000000000000000081525060400191505060405180910390fd5b8060028190555050565b600060149054906101000a900460ff1681565b6000809054906101000a900473ffffffffffffffffffffffffffffffffffffffff1673ffffffffffffffffffffffffffffffffffffffff163373ffffffffffffffffffffffffffffffffffffffff16141515610a9f576040517f08c379a00000000000000000000000000000000000000000000000000000000081526004018080602001828103825260258152602001807f596f75277265206e6f7420746865206f776e6572206f66207468697320636f6e81526020017f747261637400000000000000000000000000000000000000000000000000000081525060400191505060405180910390fd5b60018110151515610b3e576040517f08c379a000000000000000000000000000000000000000000000000000000000815260040180806020018281038252602a8152602001807f546865204d6178206c656e677468206f6620696e666f2063616e206e6f74206c81526020017f657373207468616e20310000000000000000000000000000000000000000000081525060400191505060405180910390fd5b6127108111151515610bde576040517f08c379a00000000000000000000000000000000000000000000000000000000081526004018080602001828103825260318152602001807f546865204d6178206c656e677468206f6620696e666f2063616e206e6f74206781526020017f726561746572207468616e20313030303000000000000000000000000000000081525060400191505060405180910390fd5b8060048190555050565b6000809054906101000a900473ffffffffffffffffffffffffffffffffffffffff1673ffffffffffffffffffffffffffffffffffffffff163373ffffffffffffffffffffffffffffffffffffffff16141515610cd2576040517f08c379a00000000000000000000000000000000000000000000000000000000081526004018080602001828103825260258152602001807f596f75277265206e6f7420746865206f776e6572206f66207468697320636f6e81526020017f747261637400000000000000000000000000000000000000000000000000000081525060400191505060405180910390fd5b6001600060146101000a81548160ff021916908315150217905550600060149054906101000a900460ff1615157f44cd398f157fa2dcc23e1a3238d8ec602ef8ed03c90372c10918d81d69e36ab160405160405180910390a2565b60025481565b60035481565b60045481565b6000809054906101000a900473ffffffffffffffffffffffffffffffffffffffff1673ffffffffffffffffffffffffffffffffffffffff163373ffffffffffffffffffffffffffffffffffffffff16141515610e29576040517f08c379a00000000000000000000000000000000000000000000000000000000081526004018080602001828103825260258152602001807f596f75277265206e6f7420746865206f776e6572206f66207468697320636f6e81526020017f747261637400000000000000000000000000000000000000000000000000000081525060400191505060405180910390fd5b670de0b6b3a76400008110151515610ecf576040517f08c379a000000000000000000000000000000000000000000000000000000000815260040180806020018281038252602a8152602001807f546865204d617820446f6e6174696f6e206c696d69742063616e206e6f74206c81526020017f657373207468616e20310000000000000000000000000000000000000000000081525060400191505060405180910390fd5b69152d02c7e14af68000008111151515610f77576040517f08c379a00000000000000000000000000000000000000000000000000000000081526004018080602001828103825260328152602001807f546865204d617820446f6e6174696f6e206c696d69742063616e206e6f74206781526020017f726561746572207468616e20313030303030000000000000000000000000000081525060400191505060405180910390fd5b806001819055507f81dd982a798428c13d9d62277855b49d15ca5956b6ad2dfe3af999dd62769f978142604051808381526020018281526020019250505060405180910390a150565b60015481565b600060149054906101000a900460ff16151561104a576040517f08c379a00000000000000000000000000000000000000000000000000000000081526004018080602001828103825260188152602001807f54686520436f6e74726163742069732064697361626c6564000000000000000081525060200191505060405180910390fd5b88600073ffffffffffffffffffffffffffffffffffffffff166007600083815260200190815260200160002060010160009054906101000a900473ffffffffffffffffffffffffffffffffffffffff1673ffffffffffffffffffffffffffffffffffffffff1614151515611126576040517f08c379a000000000000000000000000000000000000000000000000000000000815260040180806020018281038252601b8152602001807f546869732064617070206973206e6f742072656769737465726564000000000081525060200191505060405180910390fd5b6007600082815260200190815260200160002060070160009054906101000a900460ff161515156111bf576040517f08c379a00000000000000000000000000000000000000000000000000000000081526004018080602001828103825260198152602001807f546869732064617070206973206465726567697374657265640000000000000081525060200191505060405180910390fd5b893373ffffffffffffffffffffffffffffffffffffffff166007600083815260200190815260200160002060010160009054906101000a900473ffffffffffffffffffffffffffffffffffffffff1673ffffffffffffffffffffffffffffffffffffffff161415156112bf576040517f08c379a00000000000000000000000000000000000000000000000000000000081526004018080602001828103825260218152602001807f596f75277265206e6f7420746865206f776e6572206f6620746869732064617081526020017f700000000000000000000000000000000000000000000000000000000000000081525060400191505060405180910390fd5b6113a98a8a8080601f016020809104026020016040519081016040528093929190818152602001838380828437820191505050505050600760008e81526020019081526020016000206002018054600181600116156101000203166002900480601f01602080910402602001604051908101604052809291908181526020018280546001816001161561010002031660029004801561139f5780601f106113745761010080835404028352916020019161139f565b820191906000526020600020905b81548152906001019060200180831161138257829003601f168201915b5050505050613234565b151561145e576000151560058b8b60405180838380828437820191505092505050908152602001604051809103902060009054906101000a900460ff16151514151561145d576040517f08c379a000000000000000000000000000000000000000000000000000000000815260040180806020018281038252601f8152602001807f54686973206e616d652068617320616c7265616479206265656e20757365640081525060200191505060405180910390fd5b5b6002548a8a905011151515611501576040517f08c379a00000000000000000000000000000000000000000000000000000000081526004018080602001828103825260238152602001807f4c656e677468206f66206e616d652073686f756c64206c657373207468616e2081526020017f313030000000000000000000000000000000000000000000000000000000000081525060400191505060405180910390fd5b60035487879050111515156115a4576040517f08c379a00000000000000000000000000000000000000000000000000000000081526004018080602001828103825260228152602001807f4c656e677468206f662075726c2073686f756c64206c657373207468616e203181526020017f303000000000000000000000000000000000000000000000000000000000000081525060400191505060405180910390fd5b6004548484905011151515611647576040517f08c379a000000000000000000000000000000000000000000000000000000000815260040180806020018281038252602b8152602001807f4c656e677468206f6620657874656e646564496e666f2073686f756c64206c6581526020017f7373207468616e2032303000000000000000000000000000000000000000000081525060400191505060405180910390fd5b8989600760008e8152602001908152602001600020600201919061166c9291906133fa565b5087600760008d815260200190815260200160002060030160006101000a81548173ffffffffffffffffffffffffffffffffffffffff021916908373ffffffffffffffffffffffffffffffffffffffff1602179055508686600760008e815260200190815260200160002060040191906116e79291906133fa565b5084600760008d815260200190815260200160002060050160006101000a81548173ffffffffffffffffffffffffffffffffffffffff021916908373ffffffffffffffffffffffffffffffffffffffff1602179055508383600760008e815260200190815260200160002060060191906117629291906133fa565b507f6969ad413c7dd80a3ed717acda5747b049ded2df78e9b6e31d97a44d94161ea08b8b8b8b8b8b8b8b8b42604051808b8152602001806020018973ffffffffffffffffffffffffffffffffffffffff1673ffffffffffffffffffffffffffffffffffffffff168152602001806020018773ffffffffffffffffffffffffffffffffffffffff1673ffffffffffffffffffffffffffffffffffffffff1681526020018060200185815260200184810384528d8d82818152602001925080828437820191505084810383528a8a828181526020019250808284378201915050848103825287878281815260200192508082843782019150509d505050505050505050505050505060405180910390a15050505050505050505050565b60008060149054906101000a900460ff161515611902576040517f08c379a00000000000000000000000000000000000000000000000000000000081526004018080602001828103825260188152602001807f54686520436f6e74726163742069732064697361626c6564000000000000000081525060200191505060405180910390fd5b60025489899050111515156119a5576040517f08c379a00000000000000000000000000000000000000000000000000000000081526004018080602001828103825260238152602001807f4c656e677468206f66206e616d652073686f756c64206c657373207468616e2081526020017f313030000000000000000000000000000000000000000000000000000000000081525060400191505060405180910390fd5b6000151560058a8a60405180838380828437820191505092505050908152602001604051809103902060009054906101000a900460ff161515141515611a53576040517f08c379a000000000000000000000000000000000000000000000000000000000815260040180806020018281038252601f8152602001807f54686973206e616d652068617320616c7265616479206265656e20757365640081525060200191505060405180910390fd5b6003548686905011151515611af6576040517f08c379a00000000000000000000000000000000000000000000000000000000081526004018080602001828103825260228152602001807f4c656e677468206f662075726c2073686f756c64206c657373207468616e203181526020017f303000000000000000000000000000000000000000000000000000000000000081525060400191505060405180910390fd5b6004548383905011151515611b99576040517f08c379a000000000000000000000000000000000000000000000000000000000815260040180806020018281038252602b8152602001807f4c656e677468206f6620657874656e646564496e666f2073686f756c64206c6581526020017f7373207468616e2032303000000000000000000000000000000000000000000081525060400191505060405180910390fd5b42905060016006600082825401925050819055506101406040519081016040528060065481526020013373ffffffffffffffffffffffffffffffffffffffff1681526020018a8a8080601f01602080910402602001604051908101604052809392919081815260200183838082843782019150505050505081526020018873ffffffffffffffffffffffffffffffffffffffff16815260200187878080601f01602080910402602001604051908101604052809392919081815260200183838082843782019150505050505081526020018573ffffffffffffffffffffffffffffffffffffffff16815260200184848080601f016020809104026020016040519081016040528093929190818152602001838380828437820191505050505050815260200160001515815260200160008152602001828152506007600060065481526020019081526020016000206000820151816000015560208201518160010160006101000a81548173ffffffffffffffffffffffffffffffffffffffff021916908373ffffffffffffffffffffffffffffffffffffffff1602179055506040820151816002019080519060200190611d5492919061347a565b5060608201518160030160006101000a81548173ffffffffffffffffffffffffffffffffffffffff021916908373ffffffffffffffffffffffffffffffffffffffff1602179055506080820151816004019080519060200190611db892919061347a565b5060a08201518160050160006101000a81548173ffffffffffffffffffffffffffffffffffffffff021916908373ffffffffffffffffffffffffffffffffffffffff16021790555060c0820151816006019080519060200190611e1c92919061347a565b5060e08201518160070160006101000a81548160ff02191690831515021790555061010082015181600801556101208201518160090155905050600160058a8a60405180838380828437820191505092505050908152602001604051809103902060006101000a81548160ff0219169083151502179055507f059b6a9623690623b8699b6b3ed2d015407d852549414b10be6b309b58d9127589898989898989898960405180806020018973ffffffffffffffffffffffffffffffffffffffff1673ffffffffffffffffffffffffffffffffffffffff168152602001806020018773ffffffffffffffffffffffffffffffffffffffff1673ffffffffffffffffffffffffffffffffffffffff1681526020018060200185815260200184810384528d8d82818152602001925080828437820191505084810383528a8a828181526020019250808284378201915050848103825287878281815260200192508082843782019150509c5050505050505050505050505060405180910390a1505050505050505050565b6000809054906101000a900473ffffffffffffffffffffffffffffffffffffffff1673ffffffffffffffffffffffffffffffffffffffff163373ffffffffffffffffffffffffffffffffffffffff1614151561208e576040517f08c379a00000000000000000000000000000000000000000000000000000000081526004018080602001828103825260258152602001807f596f75277265206e6f7420746865206f776e6572206f66207468697320636f6e81526020017f747261637400000000000000000000000000000000000000000000000000000081525060400191505060405180910390fd5b60008060146101000a81548160ff021916908315150217905550600060149054906101000a900460ff1615157f44cd398f157fa2dcc23e1a3238d8ec602ef8ed03c90372c10918d81d69e36ab160405160405180910390a2565b6000809054906101000a900473ffffffffffffffffffffffffffffffffffffffff1681565b600080600060149054906101000a900460ff161515612194576040517f08c379a00000000000000000000000000000000000000000000000000000000081526004018080602001828103825260188152602001807f54686520436f6e74726163742069732064697361626c6564000000000000000081525060200191505060405180910390fd5b83600073ffffffffffffffffffffffffffffffffffffffff166007600083815260200190815260200160002060010160009054906101000a900473ffffffffffffffffffffffffffffffffffffffff1673ffffffffffffffffffffffffffffffffffffffff1614151515612270576040517f08c379a000000000000000000000000000000000000000000000000000000000815260040180806020018281038252601b8152602001807f546869732064617070206973206e6f742072656769737465726564000000000081525060200191505060405180910390fd5b6007600082815260200190815260200160002060070160009054906101000a900460ff16151515612309576040517f08c379a00000000000000000000000000000000000000000000000000000000081526004018080602001828103825260198152602001807f546869732064617070206973206465726567697374657265640000000000000081525060200191505060405180910390fd5b670de0b6b3a764000084101515156123af576040517f08c379a00000000000000000000000000000000000000000000000000000000081526004018080602001828103825260268152602001807f5468652073706f6e736f7220616d6f756e742063616e206e6f74206c6573732081526020017f7468616e2031000000000000000000000000000000000000000000000000000081525060400191505060405180910390fd5b600154841115151561244f576040517f08c379a00000000000000000000000000000000000000000000000000000000081526004018080602001828103825260398152602001807f5468652073706f6e736f7220616d6f756e742063616e206e6f7420677265617481526020017f6572207468616e206d61782073706f6e736f72206c696d69740000000000000081525060400191505060405180910390fd5b6007600086815260200190815260200160002060050160009054906101000a900473ffffffffffffffffffffffffffffffffffffffff1692508273ffffffffffffffffffffffffffffffffffffffff166108fc859081150290604051600060405180830381858888f193505050501580156124ce573d6000803e3d6000fd5b508360076000878152602001908152602001600020600801600082825401925050819055504291507fd2ffe3d8118436bb3e7ec26948de5c2dfbc00dcadcfe3fc01e3b9c6aaa1d482b33848685604051808573ffffffffffffffffffffffffffffffffffffffff1673ffffffffffffffffffffffffffffffffffffffff1681526020018473ffffffffffffffffffffffffffffffffffffffff1673ffffffffffffffffffffffffffffffffffffffff16815260200183815260200182815260200194505050505060405180910390a15050505050565b6060600080600060149054906101000a900460ff16151561262d576040517f08c379a00000000000000000000000000000000000000000000000000000000081526004018080602001828103825260188152602001807f54686520436f6e74726163742069732064697361626c6564000000000000000081525060200191505060405180910390fd5b6000809054906101000a900473ffffffffffffffffffffffffffffffffffffffff1673ffffffffffffffffffffffffffffffffffffffff163373ffffffffffffffffffffffffffffffffffffffff16141515612717576040517f08c379a00000000000000000000000000000000000000000000000000000000081526004018080602001828103825260258152602001807f596f75277265206e6f7420746865206f776e6572206f66207468697320636f6e81526020017f747261637400000000000000000000000000000000000000000000000000000081525060400191505060405180910390fd5b83600073ffffffffffffffffffffffffffffffffffffffff166007600083815260200190815260200160002060010160009054906101000a900473ffffffffffffffffffffffffffffffffffffffff1673ffffffffffffffffffffffffffffffffffffffff16141515156127f3576040517f08c379a000000000000000000000000000000000000000000000000000000000815260040180806020018281038252601b8152602001807f546869732064617070206973206e6f742072656769737465726564000000000081525060200191505060405180910390fd5b6007600082815260200190815260200160002060070160009054906101000a900460ff1615151561288c576040517f08c379a00000000000000000000000000000000000000000000000000000000081526004018080602001828103825260198152602001807f546869732064617070206973206465726567697374657265640000000000000081525060200191505060405180910390fd5b60016007600087815260200190815260200160002060070160006101000a81548160ff021916908315150217905550600760008681526020019081526020016000206002018054600181600116156101000203166002900480601f0160208091040260200160405190810160405280929190818152602001828054600181600116156101000203166002900480156129655780601f1061293a57610100808354040283529160200191612965565b820191906000526020600020905b81548152906001019060200180831161294857829003601f168201915b5050505050935060006005856040518082805190602001908083835b6020831015156129a65780518252602082019150602081019050602083039250612981565b6001836020036101000a038019825116818451168082178552505050505050905001915050908152602001604051809103902060006101000a81548160ff0219169083151502179055506007600086815260200190815260200160002060050160009054906101000a900473ffffffffffffffffffffffffffffffffffffffff1692504291507f3ba4074f93eb91d5e016be320e9a7e42807f89a01e3810717aefdfd463748dc98585858560405180858152602001806020018473ffffffffffffffffffffffffffffffffffffffff1673ffffffffffffffffffffffffffffffffffffffff168152602001838152602001828103825285818151815260200191508051906020019080838360005b83811015612acf578082015181840152602081019050612ab4565b50505050905090810190601f168015612afc5780820380516001836020036101000a031916815260200191505b509550505050505060405180910390a15050505050565b6060600060149054906101000a900460ff161515612b99576040517f08c379a00000000000000000000000000000000000000000000000000000000081526004018080602001828103825260188152602001807f54686520436f6e74726163742069732064697361626c6564000000000000000081525060200191505060405180910390fd5b81600073ffffffffffffffffffffffffffffffffffffffff166007600083815260200190815260200160002060010160009054906101000a900473ffffffffffffffffffffffffffffffffffffffff1673ffffffffffffffffffffffffffffffffffffffff1614151515612c75576040517f08c379a000000000000000000000000000000000000000000000000000000000815260040180806020018281038252601b8152602001807f546869732064617070206973206e6f742072656769737465726564000000000081525060200191505060405180910390fd5b6007600082815260200190815260200160002060070160009054906101000a900460ff16151515612d0e576040517f08c379a00000000000000000000000000000000000000000000000000000000081526004018080602001828103825260198152602001807f546869732064617070206973206465726567697374657265640000000000000081525060200191505060405180910390fd5b823373ffffffffffffffffffffffffffffffffffffffff166007600083815260200190815260200160002060010160009054906101000a900473ffffffffffffffffffffffffffffffffffffffff1673ffffffffffffffffffffffffffffffffffffffff16141515612e0e576040517f08c379a00000000000000000000000000000000000000000000000000000000081526004018080602001828103825260218152602001807f596f75277265206e6f7420746865206f776e6572206f6620746869732064617081526020017f700000000000000000000000000000000000000000000000000000000000000081525060400191505060405180910390fd5b60016007600086815260200190815260200160002060070160006101000a81548160ff021916908315150217905550600760008581526020019081526020016000206002018054600181600116156101000203166002900480601f016020809104026020016040519081016040528092919081815260200182805460018160011615610100020316600290048015612ee75780601f10612ebc57610100808354040283529160200191612ee7565b820191906000526020600020905b815481529060010190602001808311612eca57829003601f168201915b5050505050925060006005846040518082805190602001908083835b602083101515612f285780518252602082019150602081019050602083039250612f03565b6001836020036101000a038019825116818451168082178552505050505050905001915050908152602001604051809103902060006101000a81548160ff0219169083151502179055507f1fa28a84366affe20bd260d72d7a9e2f36a6f91fd7ef38057bd37fbca04915c3843385604051808481526020018373ffffffffffffffffffffffffffffffffffffffff1673ffffffffffffffffffffffffffffffffffffffff16815260200180602001828103825283818151815260200191508051906020019080838360005b8381101561300e578082015181840152602081019050612ff3565b50505050905090810190601f16801561303b5780820380516001836020036101000a031916815260200191505b5094505050505060405180910390a150505050565b6000809054906101000a900473ffffffffffffffffffffffffffffffffffffffff1673ffffffffffffffffffffffffffffffffffffffff163373ffffffffffffffffffffffffffffffffffffffff1614151561313a576040517f08c379a00000000000000000000000000000000000000000000000000000000081526004018080602001828103825260258152602001807f596f75277265206e6f7420746865206f776e6572206f66207468697320636f6e81526020017f747261637400000000000000000000000000000000000000000000000000000081525060400191505060405180910390fd5b600073ffffffffffffffffffffffffffffffffffffffff168173ffffffffffffffffffffffffffffffffffffffff161415151561317657600080fd5b8073ffffffffffffffffffffffffffffffffffffffff166000809054906101000a900473ffffffffffffffffffffffffffffffffffffffff1673ffffffffffffffffffffffffffffffffffffffff167f8be0079c531659141344cd1fd0a4f28419497f9722a3daafe3b4186f6b6457e060405160405180910390a3806000806101000a81548173ffffffffffffffffffffffffffffffffffffffff021916908373ffffffffffffffffffffffffffffffffffffffff16021790555050565b60008151835114151561324a57600090506133f4565b816040516020018082805190602001908083835b602083101515613283578051825260208201915060208101905060208303925061325e565b6001836020036101000a0380198251168184511680821785525050505050509050019150506040516020818303038152906040526040518082805190602001908083835b6020831015156132ec57805182526020820191506020810190506020830392506132c7565b6001836020036101000a038019825116818451168082178552505050505050905001915050604051809103902060001916836040516020018082805190602001908083835b6020831015156133565780518252602082019150602081019050602083039250613331565b6001836020036101000a0380198251168184511680821785525050505050509050019150506040516020818303038152906040526040518082805190602001908083835b6020831015156133bf578051825260208201915060208101905060208303925061339a565b6001836020036101000a0380198251168184511680821785525050505050509050019150506040518091039020600019161490505b92915050565b828054600181600116156101000203166002900490600052602060002090601f016020900481019282601f1061343b57803560ff1916838001178555613469565b82800160010185558215613469579182015b8281111561346857823582559160200191906001019061344d565b5b50905061347691906134fa565b5090565b828054600181600116156101000203166002900490600052602060002090601f016020900481019282601f106134bb57805160ff19168380011785556134e9565b828001600101855582156134e9579182015b828111156134e85782518255916020019190600101906134cd565b5b5090506134f691906134fa565b5090565b61351c91905b80821115613518576000816000905550600101613500565b5090565b905600a165627a7a7230582034298a416b7b0a397906b7e72c12eebff25a614aa81d72a7d26d5f96ae3e737f0029",
  "source": "// SPDX-License-Identifier: MIT\r\npragma solidity ^0.4.24;\r\n\r\nimport \"./interfaces/ISponsor.sol\";\r\nimport \"./interfaces/IAdmin.sol\";\r\nimport \"./interfaces/IRegistrant.sol\";\r\nimport \"./lib/Enable.sol\";\r\n\r\ncontract Sponsor is Enable, IAdmin , IRegistrant, ISponsor {\r\n\r\n    uint256 public maxSponsorLimit = 10000 ether;\r\n    uint public maxNameLength = 100;\r\n    uint public maxUrlLength = 100;\r\n    uint public maxInfoLength = 200;\r\n\r\n    struct Dapp {\r\n        uint id;\r\n        address registrant;\r\n        string dappName; // name of the project that user want to register\r\n        address contractAddr; // the contract address\r\n        string indexUrl; // the contract index url\r\n        address receiverAddr; // the address receiving sponsor\r\n        string extendedInfo; // extended information\r\n        bool deregistered;\r\n        uint256 donationAmount;\r\n        uint256 created_at;\r\n    }\r\n\r\n    mapping(string => bool) internal name_list;\r\n    uint dapps_seq = 0;\r\n    \r\n    mapping(uint => Dapp) internal Dapps;\r\n\r\n    function strCompare(string a, string b) internal pure returns (bool) {\r\n        if (bytes(a).length != bytes(b).length) {\r\n            return false;\r\n        } else {\r\n            return keccak256(abi.encodePacked(a)) == keccak256(abi.encodePacked(b));\r\n        }\r\n    }\r\n\r\n\r\n    modifier onlyRegistrant(uint id) {\r\n        require(Dapps[id].registrant == msg.sender, \"You're not the owner of this dapp\");\r\n        _;\r\n    }\r\n\r\n    modifier onlyRegistered(uint id) {\r\n        require(Dapps[id].registrant != address(0), \"This dapp is not registered\");\r\n        require(!Dapps[id].deregistered, \"This dapp is deregistered\");\r\n        _;\r\n    }\r\n\r\n    function setMaxSponsorLimit(uint256 limit) external onlyOwner {\r\n        require(limit >= 1 ether, \"The Max Donation limit can not less than 1\");\r\n        require(limit <=100000 ether, \"The Max Donation limit can not greater than 100000\");\r\n        maxSponsorLimit = limit;\r\n        \r\n        emit SetMaxSponsorLimit(limit, block.timestamp);\r\n    }\r\n\r\n    function setMaxNameLength(uint len) external onlyOwner {\r\n        require(len >= 1 , \"The Max length of name can not less than 1\");\r\n        require(len <=10000, \"The Max length of name can not greater than 10000\");\r\n        maxNameLength = len;\r\n    }\r\n\r\n    function setMaxUrlLength(uint len) external onlyOwner {\r\n        require(len >= 1 , \"The Max length of url can not less than 1\");\r\n        require(len <=10000, \"The Max length of url can not greater than 10000\");\r\n        maxUrlLength = len;\r\n    }\r\n\r\n    function setMaxInfoLength(uint len) external onlyOwner {\r\n        require(len >= 1 , \"The Max length of info can not less than 1\");\r\n        require(len <=10000, \"The Max length of info can not greater than 10000\");\r\n        maxInfoLength = len;\r\n    }\r\n\r\n    function registerDapp(string name, address contractAddr, string url, address receiverAddr, string extendedInfo) external onlyEnabled {\r\n        require(bytes(name).length <= maxNameLength, \"Length of name should less than 100\" );\r\n        require(name_list[name] == false, \"This name has already been used\");\r\n        require(bytes(url).length <= maxUrlLength, \"Length of url should less than 100\");\r\n        require(bytes(extendedInfo).length <= maxInfoLength, \"Length of extendedInfo should less than 200\");\r\n\r\n        uint256 created_at = block.timestamp;\r\n        dapps_seq += 1;\r\n        Dapps[dapps_seq] = Dapp({\r\n            id: dapps_seq,\r\n            registrant: msg.sender,\r\n            dappName: name,\r\n            contractAddr: contractAddr,\r\n            indexUrl: url,\r\n            receiverAddr: receiverAddr,\r\n            extendedInfo: extendedInfo,\r\n            deregistered: false,\r\n            donationAmount: 0,\r\n            created_at: created_at\r\n        });\r\n        name_list[name] = true;\r\n        emit RegisterDapp(name, contractAddr, url, receiverAddr, extendedInfo, created_at);\r\n    }\r\n\r\n    function deregisterDapp(uint id) external onlyEnabled onlyRegistered(id) onlyRegistrant(id){\r\n        Dapps[id].deregistered = true;\r\n        string memory name = Dapps[id].dappName;\r\n        name_list[name] = false;\r\n        \r\n        emit DeregisterDapp(id, msg.sender, name);\r\n    }\r\n\r\n    function modifyDapp(uint id, string name, address contractAddr, string url, address receiverAddr, string extendedInfo) external onlyEnabled onlyRegistered(id) onlyRegistrant(id){\r\n        if(!strCompare(name, Dapps[id].dappName)) {\r\n            require(name_list[name] == false, \"This name has already been used\");\r\n        }\r\n        require(bytes(name).length <= maxNameLength, \"Length of name should less than 100\");\r\n        require(bytes(url).length <= maxUrlLength, \"Length of url should less than 100\");\r\n        require(bytes(extendedInfo).length <= maxInfoLength, \"Length of extendedInfo should less than 200\");\r\n        Dapps[id].dappName = name;\r\n        Dapps[id].contractAddr = contractAddr;\r\n        Dapps[id].indexUrl = url;\r\n        Dapps[id].receiverAddr = receiverAddr;\r\n        Dapps[id].extendedInfo = extendedInfo;\r\n        \r\n        emit ModifyDapp(id, name, contractAddr, url, receiverAddr, extendedInfo, block.timestamp);\r\n    }\r\n\r\n    function takedownDapp(uint id) external onlyEnabled onlyOwner onlyRegistered(id){\r\n        Dapps[id].deregistered = true;\r\n        string memory name = Dapps[id].dappName;\r\n        name_list[name] = false;\r\n        address receiverAddr = Dapps[id].receiverAddr;\r\n        uint256 takedown_at = block.timestamp;\r\n        \r\n        emit TakedownDapp(id, name, receiverAddr, takedown_at);\r\n    }\r\n\r\n    function sponsor(uint id, uint256 amount) external payable onlyEnabled onlyRegistered(id) {\r\n        require(amount >= 1 ether, \"The sponsor amount can not less than 1\");\r\n        require(amount <= maxSponsorLimit, \"The sponsor amount can not greater than max sponsor limit\");\r\n        address receiver = Dapps[id].receiverAddr;\r\n        receiver.transfer(amount);\r\n        Dapps[id].donationAmount += amount;\r\n        uint256 sponsor_at = block.timestamp;\r\n\r\n        emit Sponsor(msg.sender, receiver, amount, sponsor_at);\r\n    }\r\n}",
  "sourcePath": "E:\\cpchain-dapps-sponsor\\contracts\\Sponsor.sol",
  "compiler": {
    "name": "solc",
    "version": "0.4.25+commit.59dbf8f1.Linux.g++"
  },
  "schemaVersion": "3.4.4",
  "updatedAt": "2022-02-21T08:24:00.408Z",
  "devdoc": {
    "methods": {
      "disableContract()": {
        "details": "set contract disable\r"
      },
      "enableContract()": {
        "details": "set contract enable\r"
      }
    }
  },
  "userdoc": {
    "methods": {
      "transferOwnership(address)": {
        "notice": "Allows the current owner to transfer control of the contract to a newOwner. \r"
      }
    }
  }
}